:100000000C9439010C944D010C944D010C944D014C
:100010000C944D010C944D010C944D010C944D0128
:100020000C944D010C944D010C944D010C944D0118
:100030000C944D010C944D010C944D010C944D0108
:100040000C944D010C944D010C944D010C944D01F8
:100050000C944D010C944D010C944D010C945502DF
:100060000C944D010C944D010C944D010C944D01D8
:100070000C944D010C944D010C944D010C944D01C8
:100080000C944D010C944D010C944D010C944D01B8
:100090000C944D010C944D010C944D010C944D01A8
:1000A0000C944D010C944D010C944D010C944D0198
:1000B0000C944D010C944D010C944D010C944D0188
:1000C0000C944D010C944D010C944D010C944D0178
:1000D0000C944D010C944D010C944D010C944D0168
:1000E0000C944D010C94F4010C94BD030C94CA01C2
:1000F0000C94E6010C94D8010C94E0030C94EA03F0
:100100000C9408040C94C7030C94D4010C94C401FF
:100110000C94EA010C94F0010C94B5010C94A30129
:100120000C94DC010C9469030C94BD010C94B9018E
:100130000C94B3030C94C1010C949E010C948503A0
:100140000C9499030C94FE030C94A9030C948F0354
:100150000C94D6030C947B030C9476030C94F40358
:100160000C94CE010C94E2010C94A10300000A0B44
:1001700002090C0D0E080703040100000000000036
:10018000000000000000000000000000000000006F
:10019000000000000000000012111000000000002C
:1001A000000000000000000000000000000000004F
:1001B000000000002200250028002B002E00310046
:1001C000340002010000050108010B0100002100BC
:1001D000240027002A002D00300033000101000018
:1001E000040107010A0105050505070508080808B7
:1001F000020202020A0A08080404040401010101BF
:1002000001010101030303030303030304070707B9
:100210000C0C0C0C0C0C0C0C02020202060606065E
:10022000060606060B0B0B0B0B0B0B0B010210202B
:10023000200808102040102040800201020108041C
:1002400002010102040810204080804020100804B0
:100250000201800402018040201008040201080409
:10026000020101020408102040800102040810204D
:10027000408011241FBECFEFD1E2DEBFCDBF00E032
:100280000CBF22E0A0E0B2E001C01D92A930B2078D
:10029000E1F70E949F020C9415040C94000090E07A
:1002A000FC01E45DFD4F24918A519E4FFC01849135
:1002B000882399F090E0880F991FFC01E453FE4FCA
:1002C000A591B491FC01EE54FE4F859194918FB7A6
:1002D000F894EC91E22BEC938FBF0895282F30E037
:1002E000F901E459FE4F9491F901E45DFD4F449109
:1002F0002A513E4FF9012491222309F435C0992354
:1003000011F191509231F8F4E92FF0E08827E45789
:10031000FE4F8F4F0C940D04BD01C1019E01B5012C
:10032000B901A301C401CA01CE01D401D801DC0185
:10033000E201E601A301EA01F001F40180918000ED
:100340008F7780938000E22FF0E0EE0FFF1FEE54D6
:10035000FE4FA591B4918FB7F894EC91611148C00C
:1003600040954E234C938FBF0895809180008F7DE0
:10037000E8CF80918000877FE4CF84B58F7784BDFC
:10038000E2CF84B58F7DFBCF8091B0008F778093D3
:10039000B000D9CF8091B0008F7DF9CF80919000CF
:1003A0008F7780939000CFCF809190008F7DF9CF91
:1003B00080919000877FF5CF8091A0008F77809308
:1003C000A000C1CF8091A0008F7DF9CF8091A000C7
:1003D000877FF5CF809120018F7780932001B3CF65
:1003E000809120018F7DF9CF80912001877FF5CF0B
:1003F0004E2BB8CF3FB7F89480910502909106023A
:10040000A0910702B091080226B5A89B05C02F3F16
:1004100019F00196A11DB11D3FBFBA2FA92F982F2A
:100420008827BC01CD01620F711D811D911D42E025
:10043000660F771F881F991F4A95D1F708958F92ED
:100440009F92AF92BF92CF92DF92EF92FF920E9463
:10045000FA014B015C0180EAC82E8FE0D82EE12C16
:10046000F12C0E94FA01681979098A099B09683EF2
:10047000734081059105A8F321E0C21AD108E10873
:10048000F10888EE880E83E0981EA11CB11CC114EF
:10049000D104E104F10429F7FF90EF90DF90CF90B1
:1004A000BF90AF909F908F9008951F920F920FB6BC
:1004B0000F9211242F933F938F939F93AF93BF93EA
:1004C0008091010290910202A0910302B091040276
:1004D0003091000223E0230F2D3758F50196A11D1E
:1004E000B11D209300028093010290930202A09319
:1004F0000302B09304028091050290910602A0913C
:100500000702B09108020196A11DB11D809305025A
:1005100090930602A0930702B0930802BF91AF9197
:100520009F918F913F912F910F900FBE0F901F9031
:10053000189526E8230F0296A11DB11DD2CF7894FD
:1005400084B5826084BD84B5816084BD85B58260D8
:1005500085BD85B5816085BD80916E008160809389
:100560006E001092810080918100826080938100F2
:100570008091810081608093810080918000816002
:10058000809380008091B10084608093B10080915D
:10059000B00081608093B000809191008260809370
:1005A00091008091910081608093910080919000F2
:1005B0008160809390008091A10082608093A1006F
:1005C0008091A10081608093A1008091A000816052
:1005D0008093A0008091210182608093210180910D
:1005E00021018160809321018091200181608093AD
:1005F000200180917A00846080937A0080917A0053
:10060000826080937A0080917A00816080937A0082
:1006100080917A00806880937A001092C10089E00E
:100620000E944F0185E00E944F0184E00E944F012B
:1006300085E7E82E81E0F82EC4EBD0E014EB90E0E3
:10064000C92E90E0D92E60E085E00E946E0161E045
:1006500084E00E946E0189E00E944F0161E089E020
:100660000E946E010E941F0260E085E00E946E0100
:1006700060E084E00E946E010E941F0261E085E05C
:100680000E946E0160E084E00E946E0189E00E9499
:100690004F01F7018491EFEFE80FE23108F0B8C0A5
:1006A000F0E08827E95AFC4F8F4F0C940D04690342
:1006B00076037B0385038F0308049903A103A90331
:1006C000B303BD03C703D603E0030804EA03F4033E
:1006D000FE0384B5806884BD17BD0E941F02C1144B
:1006E000D10409F4B0CF0E940000ADCF84B5806280
:1006F00084BD18BDF2CF8091800080688093800017
:10070000D0938900C0938800E8CF809180008062F8
:1007100080938000D0938B00C0938A00DECF8091BD
:100720008000886080938000D0938D00C0938C00FF
:10073000D4CF8091B00080688093B0001093B30054
:10074000CCCF8091B00080628093B0001093B40051
:10075000C4CF80919000806880939000D0939900DE
:10076000C0939800BACF80919000806280939000EF
:10077000D0939B00C0939A00B0CF80919000886086
:1007800080939000D0939D00C0939C00A6CF809151
:10079000A00080688093A0008091A0008F7B809350
:1007A000A000D093A900C093A80097CF8091A0008B
:1007B00080628093A000D093AB00C093AA008DCF3D
:1007C0008091A00088608093A000D093AD00C0937A
:1007D000AC0083CF80912001806880932001D0936A
:1007E0002901C093280179CF8091200180628093F4
:1007F0002001D0932B01C0932A016FCF809120015B
:10080000886080932001D0932D01C0932C0165CF87
:1008100061E089E00E946E0160CFEE0FFF1F881F2C
:0E0820008BBF0790F691E02D1994F894FFCF4E
:00000001FF
